:1000000000000420B5020000DD020000DF02000055
:10001000E1020000E3020000E50200000000000031
:10002000000000000000000000000000E7020000E7
:10003000E902000000000000EB020000ED020000F9
:10004000EF020000EF020000A1080000EF02000034
:10005000EF020000EF020000EF020000EF020000DC
:10006000EF020000EF020000EF020000EF020000CC
:10007000EF020000EF020000EF020000EF020000BC
:10008000EF020000EF020000EF020000EF020000AC
:10009000EF020000EF020000EF020000EF0200009C
:1000A000EF020000EF020000EF020000EF0200008C
:1000B000EF020000EF02000000000000000000005E
:1000C000EF020000EF020000EF020000EF0200006C
:1000D000EF020000EF020000EF020000EF0200005C
:1000E000EF020000EF020000EF020000000000003D
:1000F00000000000EF02000000000000EF0200001E
:1001000000000000000000000000000000000000EF
:1001100000000000000000000000000000000000DF
:1001200000000000000000000000000000000000CF
:1001300000000000000000000000000000000000BF
:1001400000000000000000000000000000000000AF
:10015000000000000000000000000000000000009F
:10016000000000000000000000000000000000008F
:10017000000000000000000000000000000000007F
:10018000000000000000000000000000000000006F
:10019000000000000000000000000000000000005F
:1001A000000000000000000000000000000000004F
:1001B000000000000000000000000000000000003F
:1001C000000000000000000000000000000000002F
:1001D000000000000000000000000000000000001F
:1001E000000000000000000000000000000000000F
:1001F00000000000000000000000000000000000FF
:1002000010B5054C237833B9044B13B10448AFF350
:1002100000800123237010BD880000200000000032
:100220001C29000008B5034B1BB103490348AFF379
:10023000008008BD000000008C0000201C29000088
:10024000154B002B08BF134B9D46A3F5803A0021A8
:100250008B460F461348144A121A01F0D9FA0F4B75
:10026000002B00D098470E4B002B00D09847002061
:10027000002104000D000D48002802D00C48AFF307
:10028000008001F0A1FA2000290001F037F901F007
:1002900087FA00BF000008000000042000000000F2
:1002A0000000000088000020C803002000000000BB
:1002B000000000000649074A074B9B1A03DD043B78
:1002C000C858D050FBDC01F041F9FFF7B9FF00003E
:1002D000282900000000002088000020FEE7FEE73B
:1002E000FEE7FEE7FEE7FEE7FEE7FEE7FEE7FEE7E6
:1002F0004FF0A04310B44FF480404FF400544FF43B
:1003000000414FF48032C3F80845C3F80805C3F82C
:100310000815C3F808255DF8044B70474FF0A0435B
:1003200010B44FF480404FF400544FF400414FF4A8
:100330008032C3F80C45C3F80C05C3F80C15C3F89C
:100340000C255DF8044B7047C20730B40ED4830708
:100350000AD54FF0A0430C22C3F82C27C3F830274E
:10036000C3F86027C3F8642730BC70474FF0A04340
:100370000322C3F834274FF40055C3F838274FF44D
:100380008044C3F83C274FF40041C3F840274FF4A2
:100390008032C3F80855C3F80845C3F80815C3F8F8
:1003A0000825D4E700B585B00346002101AA44F230
:1003B0000100CDE90111039300F004F805B05DF8E8
:1003C00004FB00BF72B6094B1B68DB0700D500BEFB
:1003D000BFF34F8F0649074BCA6802F4E06213432C
:1003E000CB60BFF34F8F00BFFDE700BFF0ED00E033
:1003F00000ED00E00400FA0559B142B1531E1A4065
:1004000005D1826001608380C26010467047092078
:1004100070470E20704700BF10B48468C26803465E
:100420008088121B904203D204205DF8044B704771
:10043000DA681C6802400020A154DA680132DA60F0
:100440005DF8044B704700BF03468068DA6890424D
:100450000DD010B498689A881C6802400020A25CF5
:100460000A709A6801329A605DF8044B7047052063
:10047000704700BF30B50478012C83B004D0022C43
:100480002DD0ECB103B030BD037A002B3CD04368D3
:10049000364D19782846FFF7BFFF002854D0344B5B
:1004A00001901B688DF8004068469847A968EB6882
:1004B000AA885B1A9A4227D22E4B01221A70E1E7D2
:1004C0002D492E48FFF7C0FF00282ED0284B0322CD
:1004D0001B688DF800206846984703B030BD284B54
:1004E000284D1A78C168AA5C01918DF80040B2B914
:1004F000254903F10C00012200F044FC1C4B684626
:100500001B68984703B030BD1D4B1E4A1B781E491F
:10051000D35C0122A3B11D4800F008FFB2E71A49DD
:10052000181D012200F002FFE8E71548154A03787C
:10053000D35CA3B110490122043000F08FFEA1E783
:10054000134800F01FFC9DE7AA68EB689A42ADD003
:10055000074B8DF800001B6868469847A6E70649D8
:1005600001220C3000F09AFB8CE700BFA8000020AD
:10057000A4000020B8000020D0000020BC00002013
:100580000000002050030020CC00002004000020C8
:100590000C0000202DE9F041334D8AB02A6000297B
:1005A00056D08A8880460D46304809681C46FFF7B9
:1005B00023FF10B10AB0BDE8F081AA89A9682C48D0
:1005C000FFF71AFF0028F5D12A4E98F810C02A4FDD
:1005D0000FCE02AD0FC596E80F0098F81160BCF180
:1005E000000C85E80F0018BF4FF0010CD8F804305C
:1005F0000193002ED8F81430D8F808508DF8244014
:1006000014BF0E220022D8F80C40D8F800608DF8F4
:100610001D200893194A019B8DF81CC002A9384679
:10062000CDE904450396029300F0F6F80028C1D105
:10063000D8F80030124A01331070BBD0114A3B7811
:10064000D35C4BB11049381D012200F06FFEB1E7B9
:1006500007200AB0BDE8F0810B4907F10C00012228
:1006600000F090FBA6E700BFA4000020A800002037
:10067000BC000020182800000000002075040000C5
:10068000B800002050030020CC00002070B5114DB0
:10069000014611482E78FFF7D7FE04460EB92046D2
:1006A00070BD0E480E4A0378D35C00222A7053B105
:1006B0000C490430012200F039FE0028EFD0FFF78A
:1006C00071FE204670BD074901220C3000F05AFB34
:1006D000F3E700BFB8000020A800002000000020C1
:1006E00050030020CC00002070B501461548FFF7EC
:1006F00093FE044608B1204670BD134D134E2B786F
:10070000F35CA3B1281D00F003FE0028F3D11049CB
:100710000C48FFF799FE0028EDD12B780C49F35CCB
:1007200001224BB1BDE870400A4800F097BD05F1C9
:100730000C0000F01BFBE8E7BDE87040064800F045
:10074000ADBA00BFBC000020000000205003002014
:10075000D0000020040000200C00002072B6024AE5
:100760001368013313607047D4000020034A1368F4
:10077000013B136003B962B6704700BFD40000208C
:1007800070B5161E07DD0C468D1914F8010BFFF726
:10079000ABFFA542F9D1304670BD00BF10B50C4685
:1007A0002046FFF773FF0528FAD0012010BD00BFD7
:1007B00030B585B0047845688DF80040D0E9024036
:1007C000064A074B039053F82130019552F8211047
:1007D0008DF808406846984705B030BDD800002025
:1007E000E000002030B585B0047845688DF8004001
:1007F000D0E90240064A074B039053F82130019597
:1008000052F821108DF808406846984705B030BD71
:10081000D8000020E00000202DE9F047DFF87480C8
:1008200090F800E04B7F08F80E300D46074616465C
:100830000FCD88B06C460FC495E80F003D78DFF807
:100840005890DFF858C018F8055049F82E6084E831
:100850000F004CF82E00CDF810E05DB1002E0B4AD1
:10086000694607F1040008BF324600F0E3FB08B018
:10087000BDE8F087002E064A694607F10C0008BF64
:10088000324600F013F908B0BDE8F087B107000068
:10089000E507000050030020E0000020D800002001
:1008A000014B1B68184700BFE800002038B50C4B0F
:1008B000984213D100200D46FFF750FF094B1C79D9
:1008C00024B10020FFF752FF112038BD012220463D
:1008D0001D601A71FFF74AFF204638BD002038BD61
:1008E00000200040E800002030B56E4AD2F8043302
:1008F00099058BB068D5D2F82431002B64D0002341
:10090000C2F82431D2F8243101934FF40171664BBF
:100910000198C2F8081393F8291009B90121516010
:10092000604902228DF81820D1F88024C1F8802473
:100930009869D968099200240025CDE90710C3E918
:100940000645D3E9001206A89047564AD2F81C3152
:10095000C3B1554B5869196A88426AD993F828106F
:1009600001F0FF00002964D1C2F81C01D2F81C116B
:10097000039103999C68186A196A205C0131196215
:10098000C2F81C05474AD2F84431DBB10021464B7E
:10099000C2F84411D2F8440193F82910009000984D
:1009A00009B1012111609A6962B1586AD9680022BF
:1009B0009A610122CDE907108DF8182006A8D3E925
:1009C000001290470BB030BD364AD2F804335B07B3
:1009D000BBD5D2F80831002BB7D0334B9969002929
:1009E0003ED00021C2F80811D2F8081104910499F0
:1009F000D868596AD2F8182542545A6A996901325E
:100A00005A625A6A8A42A0D1DA69002A31D0DD6876
:100A10005C6A18699A6101210022D860DA615A6221
:100A20008DF81810CDE90754D3E9001206A89047B5
:100A30008BE71C4A0021C2F81C11D2F81C2102923B
:100A4000029A5A69002A9DD058699A688DF8181040
:100A500008905961079206A8D3E90012904791E7E0
:100A6000C2F80811D2F8080105900598D2F81825A7
:100A7000C7E793F8292012B90A4A01215160094AAF
:100A80004FF40171C2F80813596ADA68089100241A
:100A9000012007928DF81800D3E900129C6106A886
:100AA000904752E700200040F00000202DE9F0417F
:100AB000DFF8E48106792C2303FB068382B093F8E8
:100AC0002A30002B40F09E8005460C4600686D4998
:100AD0001746FFF7EBFE002840F090802368591C72
:100AE00019D01F2B4FF001028ABF67494FF0A04178
:100AF00003F01F0302FA03F3C1F8083523681F2B24
:100B000086BF03F01F03604A4FF0A04203F5E07375
:100B1000032142F8231063685A1C0BD01F2B86BF99
:100B200003F01F03584A4FF0A04203F5E073002181
:100B300042F823102B68A269C3F82425217D637D28
:100B40002A680B43C2F86C35D4E900122B68C3F84D
:100B50001425C3F80C15237D012B5FD02C2303FB38
:100B600006F308EB03025760226948F803202A685D
:100B700097B30021237FC2F81C11D2F81C210092E8
:100B80002A68009FC2F84411D2F844112A680191E2
:100B90003E4C0199C2F804432A6842F30731002908
:100BA0004FEA123232DB01F1604101F561415B0134
:100BB000DBB281F800332A6842F30733002B4FEA97
:100BC000123109DB324C01225B0901F01F0102FAEC
:100BD00001F144F823102A682C2303FB0686012424
:100BE00000230421C2F80015C6E9063386F82A401E
:100BF00086F82930736102B0BDE8F081112002B09F
:100C0000BDE8F081082002B0BDE8F081214902F082
:100C10000F025B011144DBB20B76CCE7A368591CD1
:100C20000BD01F2B86BF03F01F0317494FF0A041C5
:100C300003F5E073002241F82320E3685A1C1AD020
:100C40001F2B8ABF10494FF0A04103F01F03012260
:100C500002FA03F3C1F80835E3681F2B88BF03F0DD
:100C60001F0303F5E0738CBF07494FF0A041032237
:100C700041F82320E3682A68A168C2F80835C2F861
:100C800010156BE7E9080000000300508000020027
:100C900000E100E0FCEC00E0F00000202DE9F04174
:100CA000314E05792C2303FB05630446586984B053
:100CB00000284CD15A619960186283F82800226894
:100CC000C2F81C01D2F81C11226802910121029F76
:100CD00091602268D3F808C0C2F81C01D2F81C1138
:100CE000019101991F6A196A1CF807700131196294
:100CF000C2F81C755A6812B104B0BDE8F0815F6992
:100D00001A6A216897421BD9864602E093F8282088
:100D10000ABBD1F81C21002AF8D0C1F81CE1D1F897
:100D20001C210392039AD3F820801A6A1CF80880C9
:100D300001321A62C1F81C851A6A9742E9D8216803
:100D4000D1F81C31002BFBD00123CB6004E0112033
:100D500004B0BDE8F0810F202C2303FB05650023C0
:100D60006B6104B0BDE8F081F00000200379044A13
:100D70002C2101FB03235869003818BF012070475C
:100D8000F0000020F0B4504F06792C2303FB0673CB
:100D900086B05D68044625B103684FF40170C3F85E
:100DA00008032C2303FB0673986990B1D8690028C7
:100DB0007CD11961DA612C2303FB06735A683AB3BC
:100DC00023684FF40172C3F80423002006B0F0BC7E
:100DD000704793F829509A61D9605862D861002D04
:100DE000E9D12368C3F82451D3F824212368019260
:100DF000019AC3F80851D3F808212368029201220E
:100E000002991A602C2303FB06735A68002AD7D173
:100E10002168C1F84421D1F844210392039A226841
:100E2000D2F82411D2F80851D2F8440155B900285B
:100E300033D10029F4D02C2303FB06760023B361C1
:100E40000320C3E70029F6D148BB9969C2F808011D
:100E500081B1D2F8081104910499DD68596AD2F879
:100E600018256A545A6A996901325A625A6A91423B
:100E7000D5D806E0D2F8081105910599D2F81825C1
:100E80005B6A2C2303FB0676002296F82930B261B8
:100E9000A3B1236801221A6098E70029CBD12C2343
:100EA00003FB06760023B3610F208FE755B123685B
:100EB0004FF40172C3F80423112087E7236801224D
:100EC0005A6083E7112081E7F000002030B5574BCE
:100ED000D3F824218BB0002A75D00022C3F8242136
:100EE000D3F82421049202228DF81820049AD3F812
:100EF00080144F4AC3F880140991D3F83C15D36885
:100F00000891002400250793C2E90645116853683B
:100F100006A89847454BD3F8442152B10021444AD2
:100F2000C3F84411D3F84401916903900398002950
:100F300038D13E4BD3F820215AB10021C3F82011FB
:100F4000D3F8202102920120394A029CD8605069CE
:100F5000D8B9364BD3F85821AAB10021C3F858119B
:100F6000D3F85801324A01900198506958B1D3F82A
:100F70004C05936808908DF818105161079306A8E6
:100F8000D2E9001398470BB030BDD3F84C059368F5
:100F900008908DF818105161079306A8D2E9001344
:100FA0009847D6E7D3F83C35D1680893002400254C
:100FB000012307918DF81830C2E90645D2E90013E4
:100FC00006A89847B5E7D3F810110029A2D0C3F8B6
:100FD0001021D3F810111648059105998469D3F8AA
:100FE0003C15A14296D1C469A4B1D3F800528461E2
:100FF00025F02005C3F80052D0E90343C261012265
:101000000891C3600168436807948DF8182006A80A
:1010100098477FE7C26884610123CDE907218DF8F5
:101020001830D0E9001306A8984773E70020004065
:10103000200100202DE9F0430779824E07EBC7031A
:1010400006EB830387B093F82030002B40F0B98083
:1010500004460D4600687C499046FFF727FC0028AF
:1010600040F0AB802B68591C4FEAC70919D01F2BE1
:101070004FF001028ABF75494FF0A04103F01F03F2
:1010800002FA03F3C1F808352B681F2B86BF03F063
:101090001F036E4A4FF0A04203F5E073032142F8AC
:1010A00023106B685A1C0BD01F2B86BF03F01F0345
:1010B000664A4FF0A04203F5E073002142F8231086
:1010C0002368AA69C3F82425297D6A7D23680A4319
:1010D000C3F86C25D5E900312268C2F80C35C2F896
:1010E00014152B7D012B78D009EB070206EB820348
:1010F000C3F804802B6946F82230B8F1000F4BD0BA
:1011000021682B7F524D0022C1F81021D1F8101117
:1011100001912168DDF804C0C1F82021D1F8201127
:1011200002912168DDF808C0C1F82421D1F824110A
:1011300003912168DDF80CC0C1F84421D1F84411B5
:1011400004912168DDF810C0C1F85821D1F8581178
:10115000226805910599C2F80453226842F30731C9
:1011600000294FEA123230DB01F1604101F56141A3
:101170005B01DBB281F80033226842F30733002BB6
:101180004FEA123109DB334D01225B0901F01F01E7
:1011900002FA01F145F8231022684F4406EB870656
:1011A000002301240821C2F80015C6E9063386F899
:1011B0002040736107B0BDE8F083112007B0BDE89F
:1011C000F083082007B0BDE8F083234902F00F0246
:1011D0005B011144DBB20B76CEE7AB68591C0BD038
:1011E0001F2B86BF03F01F0318494FF0A04103F5E2
:1011F000E073002241F82320EB685A1C1AD01F2B01
:101200008ABF12494FF0A04103F01F03012202FAE6
:1012100003F3C1F80835EB681F2B88BF03F01F03E9
:1012200003F5E0738CBF09494FF0A041032241F858
:101230002320EB682268A968C2F80835C2F81015A7
:1012400052E700BF20010020CD0E00000003005037
:101250001003420000E100E0FCEC00E0F0B401F01B
:101260006044B4F1005F82B02CD10579274E05EBC4
:10127000C50406EB840403466069EF0000283ED1F4
:101280006261A1601A68C2F82001D2F820C11A6810
:10129000CDF804C0DDF804C0C2F85801D2F85821D6
:1012A00000921A68DDF800C0D4F814C0C2F84415E2
:1012B000C2F848C51A6801219160626832B102B073
:1012C000F0BC7047102002B0F0BC70471A6800E014
:1012D000C8B9D2F82011D2F858010029F8D090B935
:1012E0000121D1601B68D3F85821002AFBD07B195B
:1012F00006EB830300225A6102B0F0BC7047112054
:1013000002B0F0BC70470F20F1E700BF20010020C1
:101310000379054A03EBC30302EB830358690038E2
:1013200018BF0120704700BF2001002001F060437A
:10133000B3F1005F5ED1F0B40479474D04EBC4060D
:1013400005EB860682B07668E30026B107684FF4A5
:10135000047CC7F808C3234405EB83039C694CBB9A
:101360009A61DC61D9600368C3F81041D3F8106159
:1013700003680196019EC3F84441D3F844410368D1
:101380000094009CC3F83415C3F838250368012283
:101390001A60047904EBC40305EB8303E6005B6881
:1013A00053B303684FF40472C3F80423002002B05F
:1013B000F0BC7047DC69002C37D11961DA61036831
:1013C000C3F81041D3F8106103680196019EC3F879
:1013D0004441D3F8444103680094009CC3F8341599
:1013E000C3F838250268D2F8003243F02003C2F86F
:1013F0000032CEE710207047036801E0E9B910BB66
:10140000D3F81021D3F84411D3F82401002AF5D0E1
:10141000344400284FF0000305EB840518BF032077
:10142000994218BF0F20AB61C1E796B103684FF432
:101430000472C3F804231120B9E7344405EB840592
:101440000F20AA61B3E7344405EB84050320A961AA
:10145000ADE71120ABE700BF20010020F0B5047814
:10146000022C83B027D0012C25D00CB103B0F0BDE5
:101470001C4F1D4E0DF10700FFF708F99DF80700FE
:10148000FFF732F93B789DF80720F25417490133F2
:1014900030463B7000F0DCF9054688B1FEF73EFFB0
:1014A000134800F0BDF930466422214600F0B0F93F
:1014B0003C7003B0F0BD4068FEF774FF03B0F0BDB0
:1014C0000C49304600F0C4F90028CFD0FEF710FFD9
:1014D000094800F0A5F930466422294600F098F941
:1014E0003D70C3E7B80300205403002038280000F3
:1014F000402800004C2800005028000030B5012092
:101500008BB00E4DFEF720FF0D4B00930FCD04ACBA
:101510000FC495E8030084E803000A4C0A4A4FF41C
:1015200080750723694604A8CDE902450195FFF7B8
:1015300031F800B9FEE7FEF735FFFBE75C28000055
:1015400044010020440200205D14000010B4814BCF
:101550001B68082B21D0804AD2F8883043F47003EE
:10156000C2F88830BFF34F8FBFF36F8F794B1B6882
:10157000082B00F0AA804FF01023D3F80022002A95
:10158000C0F2B680D3F80432002BC0F2B180734BA6
:10159000734A1A605DF8044B70474FF080414FF07A
:1015A00080520020C1F80C016E4BC1F81001C1F847
:1015B0003805D2F80414C3F82015D2F80814C3F87B
:1015C0002415D2F80C14C3F82815D2F81014C3F857
:1015D0002C15D2F81414C3F83015D2F81814C3F827
:1015E0003415D2F81C14C3F84015D2F82014C3F8EF
:1015F0004415D2F82414C3F84815D2F82814C3F8B7
:101600004C15D2F82C14C3F85015D2F83014C3F886
:101610005415D2F83414C3F86015D2F83814C3F84E
:101620006415D2F83C04C3F868054F49D2F8400469
:10163000C3F86C050968D2F84424C3F8702505295D
:1016400037D84A4B5B5C13B1494B4A4A1A604A4B44
:101650005B5C63B13F4B49491B68434AFB20C1F8BF
:101660001805082B11687FF476AF052921D8444B63
:101670005B5C93B14348444B364C02681B6824685A
:10168000394922F00F0203F00F031343082C0968B5
:1016900003607FF460AF05290BD83C4B5B5C43B122
:1016A0002C4B3B4A1B684FF40071082B11607FF4F0
:1016B00052AF4FF08043D3F80024D2077FF54BAFF1
:1016C0006FF00102C3F8002445E7274B1B68052B88
:1016D00008D94FF010224FF08043D2F80822C3F807
:1016E000582548E72B4AD35C002B3FF444AFF0E782
:1016F000294A0123C2F80435D2F80034002BFBD06C
:101700004FF010231221244AC3F80012D2F80034FB
:10171000002BFBD04FF0102312211F4AC3F80412F4
:10172000D2F80034002BFBD000231B49C2F804354B
:10173000D1F80034002BFBD0BFF34F8F0649174B75
:10174000CA6802F4E0621343CB60BFF34F8F00BF5F
:10175000FDE700BF3001001000ED00E014000020A4
:101760000090D00300C00040340100107C2800002D
:101770008C560040488103007C28000000F00040A7
:101780007C280000E40E0040580200107C28000075
:10179000409602407428000000E001400400FA0571
:1017A00008B5074B044613B10021AFF30080054B89
:1017B0001868836A03B19847204601F01FF800BFFC
:1017C000000000008428000070B50D4D0D4C641B16
:1017D000A4100026A64209D10B4D0C4C01F010F8C4
:1017E000641BA4100026A64205D170BD55F8043B29
:1017F00098470136EEE755F8043B98470136F2E783
:101800007C0000207C0000207C0000208000002064
:1018100002440346934200D1704703F8011BF9E7E5
:101820000FB40A4B13B51C6824B1A36913B9204641
:1018300000F07EF805AB049AA1680193204600F001
:101840009BF902B0BDE8104004B0704718000020BA
:10185000F0B50C7864B103461A7818465E1C0AB9D4
:10186000104605E0944208D10D4615F8012F02B943
:10187000F0BD13F8017F9742F7D03346ECE7000044
:10188000002310B50446C0E90033C0E90433836087
:1018900081814366C2818361194608225C30FFF76B
:1018A000B7FF054B6362054BA362054BE362054B33
:1018B0002462236310BD00BF2121000043210000EA
:1018C0007B2100009F210000014900F0AFB800BF5C
:1018D0007924000070B54A1E682555430E4605F16F
:1018E000740100F0C5F8044640B10021C0E90016BB
:1018F0000C30A06005F16802FFF78AFF204670BD3A
:10190000014800F0B3B800BFC1030020014800F057
:10191000AEB800BFC1030020014800F0A7B800BF67
:10192000BC030020014800F0A2B800BFBC030020A7
:1019300010B50446FFF7F0FFA3691BB1BDE81040E6
:10194000FFF7F0BFC4E912332365134B134A1B683A
:10195000A262A34204BF0123A361204600F020F845
:101960006060204600F01CF8A060204600F018F8E7
:101970000022E06004216068FFF782FFA068012276
:101980000921FFF77DFFE06802221221FFF778FFAF
:101990000123A361D2E700BF84280000C91800001A
:1019A000F8B50746FFF7ACFF1E4B1E68B36913B9C5
:1019B0003046FFF7BDFF4836D6E90134013B03D579
:1019C00033680BB33668F7E7B4F90C50D5B9164B4A
:1019D000E36004F15800656600F047F8FFF796FFF2
:1019E000C4E90155C4E904552560A56108222946CA
:1019F00004F15C00FFF70CFFC4E90D55C4E9125572
:101A00002046F8BD6834D9E704213846FFF762FF65
:101A1000044630600028D5D1FFF778FF0C233B60E7
:101A2000EEE700BF842800000100FFFF2DE9F84326
:101A30000646884600F148040027D4E90195B9F12B
:101A4000010905D52468002CF7D13846BDE8F88394
:101A5000AB89012B07D9B5F90E30013303D02946E4
:101A60003046C04707436835E9E77047704770471D
:101A7000F8B5CD1C25F0030508350C2D38BF0C2515
:101A8000002D064601DBA94203D90C233360002058
:101A9000F8BD00F0F5FD21490A6814469CB9204FB5
:101AA0003B6823B92146304600F02AFB38602946BE
:101AB000304600F025FB431C23D10C233360304615
:101AC00000F0E4FDE3E723685B1B17D40B2B03D97D
:101AD00023601C44256004E06368A2420CBF0B60D5
:101AE0005360304600F0D2FD04F10B00231D20F0BE
:101AF0000700C21ACCD01B1AA350C9E7224664685B
:101B0000CCE7C41C24F00304A042E3D0211A3046E1
:101B100000F0F6FA0130DDD1CFE700BF440300202A
:101B2000480300209368013B002B10B4936008DA4F
:101B30009469A34201DB0A2903D15DF8044B00F04C
:101B400033BB1368581C1060197008465DF8044BCD
:101B50007047F8B506460F461446D518AC4201D179
:101B6000002007E014F8011B3A463046FFF7DAFF81
:101B7000431CF3D1F8BD00002DE9F04F0D469DB098
:101B800014469846064618B183690BB9FFF7D0FE94
:101B9000894B9D421BD175686B6ED90705D4AB8903
:101BA0009A0502D4A86DFFF761FFAB891B0701D529
:101BB0002B69EBB92946304600F05AFBC0B16B6E79
:101BC000DC070ED54FF0FF301DB0BDE8F08F7B4B2A
:101BD0009D4201D1B568DFE7794B9D4208BFF568AA
:101BE000DAE7AB899805EDD4A86DFFF740FFE9E788
:101BF0000023099320238DF82930CDF80C80302361
:101C0000DFF8C0818DF82A304FF0010923469A464B
:101C100013F8012B0AB1252AF9D1BAEB040B0BD02A
:101C20005B46224629463046FFF793FF013000F01D
:101C3000AA80099A5A4409929AF80030002B00F0C1
:101C4000A28000234FF0FF32CDE905230AF1010AFB
:101C5000049307938DF853301A935446052214F8D1
:101C6000011B584800F0BCFC049AD8B9D10644BF07
:101C700020238DF85330130744BF2B238DF85330A6
:101C80009AF800302A2B15D0079A544600204FF0BE
:101C90000A0C214611F8013B303B092B4ED9B0B15B
:101CA000079214E0A0EB080309FA03F3134304932B
:101CB000A246D2E7039B191D1B680391002BBBBFF3
:101CC0005B4242F0020207930793B8BF0492237865
:101CD0002E2B0CD163782A2B35D1039B1A1D1B6840
:101CE0000392002BB8BF4FF0FF3302340593DFF8A7
:101CF000E4A021780322504600F072FC40B140235A
:101D0000A0EB0A0003FA00F0049B034301340493A0
:101D100014F8011B2C488DF82810062200F060FCF6
:101D200000283FD0294B1BBB039B073323F007033D
:101D300008330393099B3B44099367E70CFB02328A
:101D40000C460120A5E700230134059319464FF006
:101D50000A0C204610F8012B303A092A03D9002B2F
:101D6000C5D00591C3E70CFB012104460123F0E730
:101D700003AB00932A46164B04A93046AFF300800C
:101D80000746781CD6D16B6ED90705D4AB899A0566
:101D900002D4A86DFFF76BFEAB895B063FF512AF6F
:101DA000099811E703AB00932A46094B04A9304672
:101DB00000F080F8E4E700BFA8280000C828000071
:101DC00088280000E8280000F22800000000000039
:101DD000531B0000EE2800002DE9F04716469946F7
:101DE0008A680B69DDF820809342B8BF13463360E0
:101DF00091F8432007460C460AB10133336023684B
:101E0000990642BF336802333360256815F0060532
:101E100006D104F1190AE36832689B1AAB4226DC4A
:101E200094F84320131E226818BF012392062BD476
:101E300004F1430249463846C04701301ED02368AA
:101E4000E568326803F00603042B08BFAD1AA368E7
:101E500022690CBF25EAE57500259342C4BF9B1A91
:101E6000ED1800261A34B5421AD1002008E00123EB
:101E7000524649463846C047013003D14FF0FF3043
:101E8000BDE8F0870135C6E7E1185A1C302081F81B
:101E90004300224494F8451082F843100233C7E708
:101EA0000123224649463846C0470130E6D0013674
:101EB000D9E700002DE9FF470C469146277E0C9993
:101EC000782F80469A4604F1430207D8622F0AD839
:101ED000002F00F0D880582F00F0A38004F14206B4
:101EE00084F842703AE0A7F16303152BF6D801A0FD
:101EF00050F823F04D1F0000611F0000DD1E0000A0
:101F0000DD1E0000DD1E0000DD1E0000611F000060
:101F1000DD1E0000DD1E0000DD1E0000DD1E0000D5
:101F20006D200000911F00004F200000DD1E00000A
:101F3000DD1E00008F200000DD1E0000911F00004C
:101F4000DD1E0000DD1E0000572000000B681A1D7A
:101F50001B680A6004F1420684F842300123A3E0C2
:101F6000256808682E0600F104030AD505680B6091
:101F7000002D03DA2D236D4284F843305E480A2396
:101F800019E015F0400F05680B6018BF2DB2EFE7A0
:101F90000B682568181D0860280601D51D6802E039
:101FA0006906FBD51D8854486F2F0CBF08230A23F0
:101FB000002184F843106668A660002EA2BF216845
:101FC00021F0040121600DB9002E4DD01646B5FB5D
:101FD000F3F103FB1157C75D06F8017D2F46BB42A5
:101FE0000D46F4D9082B0BD12368DF0708D52369E8
:101FF00061689942DEBF302306F8013C06F1FF36E6
:10200000921B2261CDF800A04B4603AA2146404610
:10201000FFF7E2FE01304CD14FF0FF3004B0BDE8D5
:10202000F087354884F8457023680E681F0656F817
:10203000045B0E6014D5D90744BF43F0200323602E
:102040001DB9236823F0200323601023B0E7236821
:1020500043F0200323607823284884F84530E3E7E1
:102060005E0648BFADB2E6E71646BBE70B682668DA
:1020700060691D1D0D6035061B6801D5186002E002
:102080007106FBD51880002323611646BAE70B685A
:102090001A1D0A601E6862680021304600F0A0FA2E
:1020A00008B1801B606063682361002384F84330BB
:1020B000A8E72369324649464046D0470130ABD0B5
:1020C00023689B0713D4E068039B9842B8BF184667
:1020D000A4E70123324649464046D04701309BD011
:1020E0000135E36803995B1AAB42F2DCEBE70025AC
:1020F00004F11906F5E700BFF92800000A290000DD
:1021000038B5064D0023044608462B6000F068FBF6
:10211000431C02D12B6803B1236038BDC4030020E7
:1021200010B50C46B1F90E1000F006FB0028ABBF4D
:10213000636DA3891B1823F48053ACBF6365A3812F
:1021400010BD2DE9F0411F468B89DB0505460C4685
:10215000164605D5B1F90E100223002200F0C8F989
:10216000A389B4F90E1023F48053A38132463B4671
:102170002846BDE8F04100F069B810B50C46B1F949
:102180000E1000F0B5F9431CA38915BF606523F458
:10219000805343F48053A38118BFA38110BDB1F9CC
:1021A0000E1000F0D3B80000F8B50E4614460546F0
:1021B00018B183690BB9FFF7BBFB214B9C422BD1B4
:1021C0006C68A369A360A3891A072FD523696BB331
:1021D00023692068C01A6369F6B28342374604DC7B
:1021E0002146284600F048F930BBA368013BA360B4
:1021F00023685A1C22601E7063690130834204D038
:10220000A389DB0706D50A2E04D12146284600F013
:1022100033F988B93846F8BD0A4B9C4201D1AC6805
:10222000CFE7094B9C4208BFEC68CAE72146284625
:1022300000F01EF80028CBD04FF0FF37EAE700BFD0
:10224000A8280000C82800008828000038B5074DDD
:1022500004460846114600222A601A46FEF790FA04
:10226000431C02D12B6803B1236038BDC403002096
:10227000324B70B51D6806460C4625B1AB6913B9E3
:102280002846FFF755FB2E4B9C420FD16C68A38963
:10229000B4F90C2019072CD4DD0611D409233360BE
:1022A00042F04003A3814FF0FF303EE0254B9C42BB
:1022B00001D1AC68EBE7244B9C4208BFEC68E6E731
:1022C000580712D5616B41B104F14403994202D021
:1022D000304600F0E1F900236363A38923F024036F
:1022E000A3810023636023692360A38943F008036B
:1022F000A38123694BB9A38903F42073B3F5007F4D
:1023000003D02146304600F029F9A089B4F90C2009
:1023100010F001030AD00023A36063695B42A3614C
:10232000236943B910F08000BAD170BD810758BF4E
:102330006369A360F4E70020F7E700BF18000020FE
:10234000A8280000C82800008828000038B5064DDD
:102350000023044608462B6000F022FA431C02D1F9
:102360002B6803B1236038BDC40300208A892DE99E
:10237000F041054610070C4658D44B68002B05DC8D
:102380000B6C002B02DC0020BDE8F081E66A002E19
:10239000F9D0002312F480522F682B6032D0606D88
:1023A000A3895A0705D56368C01A636B0BB1236C08
:1023B000C01A00230246E66A216A2846B047431C39
:1023C000A38906D129681D292CD82A4ACA40D607D4
:1023D00028D500226260D9042269226004D5421CFB
:1023E00001D12B6803B96065616B2F600029CAD0E9
:1023F00004F14403994202D0284600F04DF9002030
:102400006063C1E7216A01232846B047411CC7D158
:102410002B68002BC4D01D2B01D0162B01D12F60AF
:10242000B1E7A38943F04003A381ADE70F69002F13
:10243000A9D093070E6808BF4B690F6018BF00232F
:10244000A6EB07088B60B8F1000F9CDD216AA66A35
:1024500043463A462846B047002806DCA38943F0A5
:102460004003A3814FF0FF308EE70744A8EB00083C
:10247000E9E700BF0100402038B50B6905460C466E
:1024800013B90025284638BD18B183690BB9FFF789
:102490004FFA144B9C421BD16C68B4F90C30002BE2
:1024A000EFD0626ED00704D4990502D4A06DFFF777
:1024B000DDFA28462146FFF759FF636EDA07054625
:1024C000E0D4A3899B05DDD4A06DFFF7D0FAD9E74E
:1024D000054B9C4201D1AC68DFE7044B9C4208BF2E
:1024E000EC68DAE7A8280000C82800008828000067
:1024F00038B5074D04460846114600222A601A46A0
:1025000000F066F9431C02D12B6803B1236038BD8B
:10251000C403002070B50E46B1F90E10002996B024
:1025200014461D4607DA00232B60B3891A0610D41F
:102530004FF480630EE06A4600F010F90028F2DBE9
:10254000019A02F47042A2F500535A425A412A609D
:10255000EEE740230020236016B070BD8B8973B571
:102560009D0706460C4607D504F147032360236107
:102570000123636102B070BD01AB6A46FFF7CAFF79
:10258000009905463046FFF773FA48B9B4F90C30A4
:102590009A05EFD423F0030343F00203A381E3E79A
:1025A0000D4BB362A389206043F08003A381009B9D
:1025B0006361019B20615BB1B4F90E10304600F0FD
:1025C000DFF828B1A38923F0030343F00103A381BB
:1025D000A0890543A581CDE7C918000000000000CF
:1025E00001F0FF01102A2BDB10F0070F08D010F8C4
:1025F000013B013A8B422DD010F0070F42B3F6D1C8
:10260000F0B441EA012141EA014122F007047FF0E0
:1026100000070023F0E80256083C85EA010586EA37
:10262000010685FA47F5A3FA87F586FA47F6A5FA73
:1026300087F68EB9EED1F0BC01F0FF0102F007027F
:1026400032B110F8013B013A83EA010313B1F8D12A
:102650000020704701387047002D06BF354603380B
:10266000073815F0010F07D1013015F4807F02BF44
:10267000013015F4C03F0130F0BC0138704700BF95
:102680000148FFF7F3B900BFBD0300200148FFF781
:10269000EEB900BFBD03002037B5002948D051F87E
:1026A000043C0190002BA1F10404B8BFE418FFF72B
:1026B000E7FF204A01981368154633B96360146038
:1026C00003B0BDE83040FFF7E1BFA3420BD921685A
:1026D0006218934204BF1A685B68636004BF5218B3
:1026E00022602C60ECE71A465B680BB1A342FAD972
:1026F00011685518A5420BD1246821445418A342EF
:102700001160DDD11C685B68536021441160D7E71C
:1027100002D90C230360D3E7256861198B4204BFFB
:1027200019685B68636004BF491921605460C7E79A
:1027300003B030BD4403002038B5074D04460846B9
:10274000114600222A601A46FEF728F8431C02D1DF
:102750002B6803B1236038BDC403002038B5074D92
:1027600000230446084611462B6000F021F8431C64
:1027700002D12B6803B1236038BD00BFC403002021
:1027800038B5064D0023044608462B6000F018F8C3
:10279000431C02D12B6803B1236038BDC403002061
:1027A000024B58221A604FF0FF307047C4030020DC
:1027B000024B58221A604FF0FF307047C4030020CC
:1027C000024B58221A600020704700BFC40300204B
:1027D000024B58221A604FF0FF307047C4030020AC
:1027E000044A05491368002B08BF0B4618441060C3
:1027F000184670474C030020C8030020FEE700BFC6
:10280000F8B500BFF8BC08BC9E467047F8B500BFDD
:10281000F8BC08BC9E467047FFFFFFFFFFFFFFFFAD
:10282000FFFFFFFFFFFFFFFF0000000000000000B0
:102830000000D6010601000068696768000000001A
:102840000D0A4C4544204F4E0D0A00006C6F770076
:102850000D0A4C4544204F46460D0A000800000072
:102860000600000005000000070000000000000056
:1028700000E0D7010000000001010000010000009D
:10288000000000001C00002000000000000000000C
:102890000000000000000000000000000000000038
:1028A0000000000000000000000000000000000028
:1028B0000000000000000000000000000000000018
:1028C0000000000000000000000000000000000008
:1028D00000000000000000000000000000000000F8
:1028E0000000000000000000232D302B2000686C49
:1028F0004C00656667454647003031323334353623
:10290000373839414243444546003031323334355B
:102910003637383961626364656600000000000084
:0829200020D9FF7F0100000037
:1029280000000000002000400000000000200040DF
:10293800000000000090D0031C00002000000000F0
:10294800A8280000C828000088280000000000000F
:10295800000000000000000000000000000000006F
:10296800000000000000000000000000000000005F
:10297800000000000000000000000000000000004F
:10298800000000000000000000000000000000003F
:102998000000000000000000000000002502000008
:0429A8000102000028
:04000003000002B542
:00000001FF
